:020000040800F2
:1000000000000220051F0008851E0008891E000848
:100010008D1E0008911E0008951E000800000000BB
:10002000000000000000000000000000991E000811
:100030009D1E000800000000A11E0008A51E00086B
:10004000551F0008551F0008551F0008551F0008C0
:10005000551F0008551F0008551F0008551F0008B0
:10006000551F0008551F0008551F0008551F0008A0
:10007000551F0008551F0008551F0008551F000890
:10008000551F0008551F0008551F0008551F000880
:10009000551F0008551F0008551F0008551F000870
:1000A000551F0008551F0008551F0008551F000860
:1000B000551F0008551F0008551F0008551F000850
:1000C000551F0008551F0008551F0008551F000840
:1000D000551F0008551F0008551F0008551F000830
:1000E000551F0008551F0008551F0008551F000820
:1000F000551F0008551F0008551F0008551F000810
:10010000551F0008551F0008551F0008551F0008FF
:10011000551F0008551F0008A91E0008551F00089C
:10012000551F0008551F0008551F0008551F0008DF
:10013000551F00080000000000000000551F0008C7
:10014000551F0008551F0008551F0008551F0008BF
:10015000551F0008551F0008551F0008551F0008AF
:10016000551F0008551F0008551F0008551F00089F
:10017000551F0008551F0008551F0008000000000B
:1001800000000000551F00080000000000000000F3
:10019000551F00080000000000000000551F000867
:1001A000000000000000000000000000551F0008D3
:1001B000551F0008551F0008551F0008551F00084F
:0401C000551F0008BF
:1001D00010B5054C237833B9044B13B10448AFF381
:1001E00000800123237010BD70000020000000007B
:1001F000C427000808B5034B1BB103490348AFF3FC
:10020000008008BD0000000074000020C427000822
:1002100053B94AB9002908BF00281CBF4FF0FF316D
:100220004FF0FF3000F072B9ADF1080C6DE904CE6B
:1002300000F006F8DDF804E0DDE9022304B07047C1
:100240002DE9F047089E04468846002B4BD18A4290
:10025000154667D9B2FA82F24AB1C2F1200701FA13
:1002600002F320FA07F7954047EA030894404FEA63
:10027000154E230CB8FBFEF71FFA85FC0EFB178802
:1002800043EA084307FB0CF1994209D9EB1807F13F
:10029000FF3080F01B81994240F21881023F2B44CD
:1002A0005B1AA4B2B3FBFEF00EFB103344EA034426
:1002B00000FB0CFCA44509D92C1900F1FF3380F098
:1002C0000781A44540F2048102382C4440EA0740EB
:1002D000A4EB0C0400271EB1D4400023C6E9004360
:1002E0003946BDE8F0878B4209D9002E00F0EB803B
:1002F0000027C6E9000138463946BDE8F087B3FA61
:1003000083F7002F47D18B4202D3824200F2FA805A
:10031000841A61EB030301209846002EE0D0C6E961
:100320000048DDE702B9FFDEB2FA82F2002A40F0AF
:100330008F80491B4FEA154E1FFA85F80127B1FB44
:10034000FEFC230C0EFB1C1143EA014308FB0CF1DD
:10035000994207D9EB180CF1FF3002D2994200F212
:10036000CD808446591AA3B2B1FBFEF00EFB1014E7
:1003700043EA044408FB00F8A04507D92C1900F112
:10038000FF3302D2A04500F2B6801846A4EB080461
:1003900040EA0C409FE7C7F1200CBB4022FA0CFE5C
:1003A0004EEA030E01FA07F420FA0CF521FA0CF3D9
:1003B0004FEA1E482543B3FBF8F92C0C08FB193310
:1003C0001FFA8EFA44EA034309FB0AF49C4202FA3C
:1003D00007F200FA07F10BD91EEB030309F1FF3016
:1003E00080F087809C4240F28480A9F10209734426
:1003F0001B1BADB2B3FBF8F008FB103345EA034416
:1004000000FB0AFAA24508D91EEB040400F1FF33F1
:100410006BD2A24569D90238744440EA0940A0FB76
:100420000289A4EB0A044C45C2464B4654D351D032
:10043000002E69D0B1EB0A0564EB030404FA0CFC4E
:10044000FD40FC404CEA0505C6E90054002747E79B
:10045000C2F1200320FA03F7954001FA02F021FAD5
:1004600003F34FEA154E3843010CB3FBFEF71FFAB6
:1004700085F80EFB173341EA034107FB08F38B4273
:1004800004FA02F407D9691807F1FF3C2FD28B4216
:100490002DD9023F2944CB1A81B2B3FBFEF00EFBEB
:1004A000103341EA034100FB08F38B4207D9691876
:1004B00000F1FF3C17D28B4215D902382944C91AE2
:1004C00040EA07473BE73746304609E70746E7E695
:1004D0001846FBE64145ABD2B8EB020A69EB0E02C7
:1004E00001381346A4E76046E9E7184695E76746F2
:1004F000D1E781467CE702382C4447E7ACF1020C97
:100500002B442FE7384608E73746E9E6704700BF37
:10051000034613F8012B002AFBD1181A0138704743
:1005200001F0FF01102A2BDB10F0070F08D010F8A4
:10053000013B013A8B422DD010F0070F42B3F6D1A8
:10054000F0B441EA012141EA014122F007047FF0C1
:1005500000070023F0E80256083C85EA010586EA18
:10056000010685FA47F5A3FA87F586FA47F6A5FA54
:1005700087F68EB9EED1F0BC01F0FF0102F0070260
:1005800032B110F8013B013A83EA010313B1F8D10B
:100590000020704701387047002D06BF35460338EC
:1005A000073815F0010F07D1013015F4807F02BF25
:1005B000013015F4C03F0130F0BC0138704700BF76
:1005C00070B50E4B0E4D1B682A7806464FF47A70B4
:1005D000B0FBF2F0B3FBF0F000F094F808B90F2E86
:1005E00001D9012070BD0446024631464FF0FF306C
:1005F00000F046F86E60204670BD00BF0800002085
:100600000000002008B50B4B1A6842F400721A6013
:100610001A6842F480621A601A6842F480721A60A2
:10062000032000F01BF80020FFF7CAFF01F032FBA7
:10063000002008BD003C0240034A044B11681B78AF
:100640000B441360704700BF9C0100200000002095
:10065000014B1868704700BF9C010020074AD3680F
:100660004FF6FF010B40000243F0BF6300F4E0606F
:1006700043F400330343D360704700BF00ED00E054
:10068000184BDB68C3F3022330B4C3F10705042D14
:1006900003F1040428BF0425062C19D9033B4FF0AD
:1006A000FF349C4022EA04044FF0FF32AA4021EAC2
:1006B000020101FA03F2224312010028D2B20ADB3E
:1006C00000F1604000F5614080F8002330BC7047C5
:1006D00000242346E8E7044B00F00F0003441A7699
:1006E00030BC704700ED00E0FCEC00E000F01F01C2
:1006F00001234009024A8B4042F82030704700BF76
:1007000000E100E00138B0F1807F0ED2084B10B458
:10071000084C5860F02084F823000022072110467E
:100720009A6019605DF8044B70470120704700BF64
:1007300010E000E000ED00E02DE9F04FDFF814C21A
:10074000DFF81482D1F800E083B0002503E0013522
:10075000102D00F094800123AB400EEA0304A34265
:10076000F5D14E6826F0100ABAF1020F00F08A8027
:100770004FEA45090322D0F800B002FA09F2D24349
:1007800006F0030702EA0B0B07FA09F70AF1FF3A32
:1007900047EA0B07BAF1010F076040F29980C7687A
:1007A0008B683A4003FA09F31343C360F300CED5D4
:1007B00000230193D8F8443043F48043C8F8443010
:1007C000D8F8443025F0030202F1804203F480435C
:1007D00002F59C32019305F00307019BD2F80890C3
:1007E000BF000F23BB4029EA030A544B98421ED096
:1007F00003F5806398427ED0514B984200F082808E
:10080000504B984200F085804F4B984200F0888012
:100810004E4B984200F08B804D4B98420CBF4FF0EE
:1008200006094FF0070909FA07F74AEA070AC2F86A
:1008300008A0DCF80030E243F70354BF1340234321
:10084000CCF80030DCF80430B70354BF1340234326
:10085000CCF80430DCF80830F70254BF13402343CF
:10086000CCF80830DCF80C30B60205F1010554BFB5
:1008700013402343102DCCF80C307FF46CAF03B041
:10088000BDE8F08F4FEAD50900EB890905F00707AD
:10089000D9F82020BF004FF00F0B0BFA07FB22EA1C
:1008A0000B0A0A69BA4042EA0A02C9F820204FEA54
:1008B00045090322D0F800A002FA09F2D24306F05B
:1008C000030702EA0A0A07FA09F747EA0A07076074
:1008D000876807EA020ACF6807FA09F747EA0A07B2
:1008E0008760D0F804A0C6F300172AEA0303AF40DC
:1008F0001F43476053E74FF0010909FA07F74AEA37
:10090000070A94E74FF0020909FA07F74AEA070ACB
:100910008DE74FF0030909FA07F74AEA070A86E765
:100920004FF0040909FA07F74AEA070A7FE74FF090
:10093000050909FA07F74AEA070A78E700000240C2
:1009400000080240000C0240001002400014024067
:1009500000180240003C01400038024002B909047E
:100960008161704760B1484A136803F00F038B42FE
:1009700008D2CBB21370136803F00F038B4201D07F
:100980000120704703682DE9F0419D0714D55C07ED
:1009900004D53E4CA26842F4E052A2601A0704D586
:1009A0003A4CA26842F46042A260384C8568A26862
:1009B00022F0F0022A43A260DF0704460D4622D54A
:1009C0004268012A56D0931E012B304B1B6858D920
:1009D000990725D52D4EB36823F003031343B36065
:1009E000FFF736FE41F28837804605E0FFF730FE1C
:1009F000A0EB0800B84242D8B368626803F00C0369
:100A0000B3EB820FF2D1204A136803F00F03AB421D
:100A100009D9EBB21370136803F00F03AB4202D095
:100A20000120BDE8F08123685A0706D51749E06820
:100A30008A6822F4E05202438A601B0711D400F056
:100A40004BF8124B12499B68124AC3F30313CB5C59
:100A500020FA03F300201360FFF7B2FD0020BDE889
:100A6000F0810A4A2169936823F4604343EAC10391
:100A70009360E4E7054B1B689E03ABD4D0E70320EB
:100A8000EDE79801A6D4CBE7003C024000380240D5
:100A9000DC27000808000020044B054A9B68054934
:100AA000C3F382230868D35CD84070470038024003
:100AB000EC27000808000020044B054A9B68054904
:100AC000C3F342330868D35CD84070470038024013
:100AD000EC27000808000020284908B58B6803F0BF
:100AE0000C03082B07D00C2B1DD0254A2548042BBE
:100AF00018BF104608BD4A684B6813F4800302F023
:100B00003F0230D149681E48C1F38811A1FB0001A2
:100B1000FFF77EFB194B5B68C3F3014301335B00B6
:100B2000B0FBF3F008BD4A684B6813F4800302F091
:100B30003F020ED149681248C1F38811A1FB0001A0
:100B4000FFF766FB0D4B5B68C3F30273B0FBF3F07A
:100B500008BD4B680B48C3F38813A3FB00010023B7
:100B6000FFF756FBEEE74B680648C3F38813A3FB79
:100B700000010023FFF74CFBCCE700BF0038024028
:100B80000024F40000127A002DE9F0410368DA072E
:100B900082B0044636D5AE498A6802F00C02042AB7
:100BA00000F0D2808A6802F00C02082A00F0C880A7
:100BB000A7498A6802F00C020C2A00F004816368DD
:100BC000B3F5803F00F00481B3F5A02F00F0608101
:100BD0009F4D2A6822F480322A602A6822F48022FB
:100BE0002A60002B40F0F980FFF732FD064605E051
:100BF000FFF72EFD801B642800F20D812B689903FE
:100C0000F6D423689A072FD5914A916811F00C0FFA
:100C100000F0AB80916801F00C01082900F0A18080
:100C20008B498A6802F00C020C2A00F02C81E368E0
:100C3000002B00F01781874B854D01221A60FFF7CA
:100C400007FD064605E0FFF703FD801B022800F2C2
:100C5000E2802B689807F6D52B68226923F0F80309
:100C600043EAC2032B6023681A0715D56369002B7A
:100C700000F08D80784B764D01221A60FFF7E8FC7A
:100C8000064605E0FFF7E4FC801B022800F2C38063
:100C90006B6F9B07F6D52368580731D56C4A136CE8
:100CA00013F0805300F0838000266C4D2A68D10534
:100CB00040F1A180A368012B00F0B180052B00F06A
:100CC000F780634D2A6F22F001022A672A6F22F013
:100CD00004022A67002B40F0A780FFF7B9FC41F21D
:100CE0008837804606E0FFF7B3FCA0EB0800B84267
:100CF00000F291802B6F9807F5D4002E40F0D2803F
:100D0000A269CAB1524DA96801F00C01082924D08A
:100D1000022A534A4FF00001116000F0D380FFF720
:100D200097FC2C46054604E0FFF792FC401B022886
:100D300071D823689B01F7D4002002B0BDE8F08190
:100D40004A6857027FF534AF414A126895037FF530
:100D500059AF6268002A7FF455AF012002B0BDE8A8
:100D6000F081526857023FF55BAF394A1268950728
:100D700002D5E268012AF0D1354920690A6822F0DB
:100D8000F80242EAC0020A601A0785D56EE7324AC5
:100D90002F4D1360FFF75CFC064604E0FFF758FC9C
:100DA000801B022837D86B6F9F07F7D473E7019336
:100DB000136C43F080531364136C03F0805301935E
:100DC000019B012671E74A6856027FF5F8AEBBE742
:100DD0001F4A136843F480331360FFF739FC1C4D3E
:100DE000064604E0FFF734FC801B642813D82B6808
:100DF0009803F7D505E72A6842F480722A60FFF766
:100E000027FC07462B68DA053FF554AFFFF720FCB7
:100E1000C01B0228F6D9032002B0BDE8F0810C4ABD
:100E2000136F43F001031367FFF712FC084D804670
:100E300041F2883705E0FFF70BFCA0EB0800B84251
:100E4000E9D82B6F9B07F6D5002E3FF459AF29E068
:100E50000038024000004742800E474200700040C8
:100E6000600047422F4A304D1360FFF7F1FB064602
:100E700004E0FFF7EDFB801B0228CCD82B68990714
:100E8000F7D42368F0E64A6856023FF5D0AE6CE727
:100E9000254B1A6842F480221A601A6842F48032A4
:100EA0001A609AE7204A136C23F08053136427E7F3
:100EB0001D4B1A6F42F004021A671A6F42F00102CA
:100EC0001A67B1E7FFF7C4FB064604E0FFF7C0FB73
:100ED000801B02289FD82B689901F7D4D4E90732E8
:100EE000666AE06A216B1343A26A0F4C43EA8613D9
:100EF00043EA0063520843EA0173013A0B4943EAAB
:100F0000024301226B600A60FFF7A2FB054605E081
:100F1000FFF79EFB401B02283FF67DAF23689A0136
:100F2000F6D509E70000474200380240600047421A
:100F30002DE9F04180460F4616461D46D8F8004080
:100F400001E06B1C0AD1A06837EA00030CBF012046
:100F500000208642F5D10020BDE8F0813DB1FFF7C9
:100F600077FB069BC01AA842E8D3D8F80040636814
:100F7000D8F8042023F0E003B2F5827F636015D037
:100F8000D8F82830B3F5005F08D123684DF6FF721A
:100F900013402360236843F400532360012200239D
:100FA00088F8512088F850300320D5E7D8F8083069
:100FB000B3F5004F02D0B3F5806FE1D1236823F081
:100FC00040032360DCE700BF2DE9F043044685B011
:100FD000012084F85000164699460F460C9DFFF7F5
:100FE00037FB94F851306268DBB2012B804611D098
:100FF000B2F5827F09D002200122002384F851201B
:1010000084F8503005B0BDE8F083A1680029F2D122
:10101000042BF0D1002F60D0002E5ED0B9F1000F6C
:101020005BD094F851302168012B04BF052384F86C
:10103000513000236365A4F83E90A4F83690086808
:10104000A6634006A4F83C902763A4F83490C4E952
:10105000103344D5E368B3F5006F45D0002A71D151
:1010600017F8013B0B73E38E013B9BB2E3864FF015
:101070000109E38E9BB21BB9E38F9BB2002B41D0D9
:10108000B9F1000F0FD0E38E9BB263B123689A6869
:10109000910708D53A781A73E38E013B9BB201376A
:1010A000E3864FF00009E38F9BB263B123689A682F
:1010B000D20708D5DB683370E38F013B9BB2013662
:1010C000E3874FF001096B1CD3D0FFF7C1FAA0EB07
:1010D00008008542CDD803208EE701208CE70B68FD
:1010E00043F040030B60B5E7002A5CD0E38E9BB26F
:1010F000012B58D04FF00109E38E9BB23BBBE38F2D
:101100009BB223BBCDF800802B4601220221204652
:10111000FFF70EFF0028DED10246CDF800802B46F7
:1011200080212046FFF704FF002844D1A368002B4C
:101130007FF462AF23680390DA6803929B6803939D
:10114000039B59E7E38E9BB2012B90D188E7B9F15D
:10115000000F0FD0E38E9BB263B123689A689107AA
:1011600008D537F8022BDA60E38E013B9BB2E386A9
:101170004FF00009E38F9BB263B123689A68D207EE
:1011800008D5DB6826F8023BE38F013B9BB2E3877F
:101190004FF00109681CAFD0FFF75AFAA0EB080026
:1011A0008542A9D897E737F8023BCB60E38E013B35
:1011B0009BB2E3869EE7636D2022134363650120A3
:1011C000626519E700283BD090F85120002370B5E4
:1011D00002F0FF010446836262B31846D4E9013588
:1011E000D4E903212B4313436269E569266A0B4363
:1011F0001343A26921682B43022584F851503343DD
:1012000002F400750E682B43120C656A02F00402AA
:1012100003432A4326F040060E600B604A60CB6908
:10122000002223F400630125CB611046626584F837
:10123000515070BD80F8501000F04AFDA06ACDE713
:101240000120704710B490F85040012C03D05DF895
:10125000044BFFF7B9BE02205DF8044B704700BF96
:101260000368DA6842F00102DA601A6842F00102AB
:101270001A600020704700BF704700BF704700BF72
:10128000704700BF704700BF03681A69910710B527
:10129000044602D5DA6892075FD41A69500702D56E
:1012A000DA68510746D41A69120702D5DA681007BE
:1012B0002ED41A69D20602D5DA68D00618D41A6973
:1012C000D10702D5DA68D2075DD41A69100602D5B3
:1012D000DA6811065FD41A69520602D5DA68500638
:1012E00061D41A69910602D5DA68920643D410BD1A
:1012F0006FF010021A61DB69082213F4407F227636
:10130000204664D0FFF7BAFF002223682276D6E792
:101310006FF008021A61DB690422990722762046E1
:1013200052D1FFF7A9FF2046FFF7AAFF002223684A
:101330002276BEE76FF004021A619B69022213F461
:10134000407F227620463CD1FFF796FF2046FFF7EC
:1013500097FF002223682276A5E76FF002021A6148
:101360009B6901229B07027625D0FFF787FF0022A9
:101370002368227691E76FF0200220461A61BDE8CB
:10138000104000F0D5B86FF001021A61204600F05D
:101390003FFB236899E76FF080021A61204600F056
:1013A000C9F8236897E76FF040021A612046FFF7FB
:1013B00069FF236895E7FFF75FFF2046FFF760FFAF
:1013C000D5E7FFF75BFFC4E7FFF758FFAEE7FFF78E
:1013D00053FF2046FFF754FF96E700BF70B4314D2E
:1013E00003688C680A68A8424FD0B0F1804F29D0BA
:1013F000A5F57C45A84234D005F58065A84230D0DB
:1014000005F58065A8422CD005F57845A84228D07E
:1014100005F57055A84213D005F58065A8420FD098
:1014200005F58065A8420BD0A5F59835A84207D0F0
:1014300005F58065A84203D005F58065A84209D16D
:10144000C96804E04D68C96823F070032B4323F496
:1014500040730B430360C46282620123436170BC2A
:1014600070474D68CE6823F070032B430E4D23F474
:1014700040733343A8420360C4628262EDD10B69BA
:1014800003630123436170BC70474E68CD6823F04D
:101490007003334323F440732B430360C4628262BE
:1014A000EDE700BF0000014000040140B8B190F832
:1014B000393010B503F0FF0204465BB1022384F813
:1014C00039302068211DFFF789FF012384F8393066
:1014D000002010BD80F8382000F07CFCEEE70120F1
:1014E000704700BF90F83830012B1ED00246022012
:1014F000136870B482F839005C6824F07004D1E994
:1015000000565C60586828435860986820F0800056
:10151000986099680024012531439960204682F83B
:10152000395082F8384070BC70470220704700BFC5
:10153000704700BF704700BF026811692DE9F8438A
:10154000C568836821F4405104462943006911614C
:10155000D16865690343E06921F416412B4321F00A
:101560000C0103430B43D3605369A16923F4407317
:101570000B43B0F5004F53619B4B00F09A809A42A9
:1015800059D003F580639A4255D0FFF785FA974FFB
:10159000636800EB800000EB80009B00B0FBF3F37E
:1015A000A7FB03235B091D01FFF776FA666800EBD2
:1015B000800000EB8000B600B0FBF6F6FFF76CFA97
:1015C000636800EB800000EB80009B00B0FBF3F34E
:1015D000A7FB03235B094FF0640909FB13631B019D
:1015E0003233A7FB03235B0903F0F006FFF754FA3D
:1015F000626800EB800000EB80009300B0FBF3F822
:10160000FFF74AFAD4E9002300EB80009B0000EBCF
:101610008000B0FBF3F0A7FB0030400909FB10830A
:101620001B013233A7FB0313C3F3431333432B4490
:101630009360BDE8F883FFF73FFA6C4F636800EBF7
:10164000800000EB80009B00B0FBF3F3A7FB0323BB
:101650005B091D01FFF730FA666800EB800000EBC4
:101660008000B600B0FBF6F6FFF726FA636800EBE1
:10167000800000EB80009B00B0FBF3F3A7FB03238B
:101680004FF064095B0909FB13631B013233A7FBAD
:1016900003235B0903F0F006FFF70EFA626800EB24
:1016A0008000930000EB8000B0FBF3F8FFF704FA32
:1016B000A8E79A4259D003F580639A4255D0FFF7C4
:1016C000EBF94A4F636800EB800000EB80005B00A1
:1016D000B0FBF3F3A7FB03235B091E01FFF7DCF963
:1016E000656800EB800000EB80006D00B0FBF5F555
:1016F000FFF7D2F9636800EB800000EB80005B002D
:10170000B0FBF3F3A7FB03235B094FF0640909FB6C
:101710001353DB003233A7FB03231B0903F4F875D3
:10172000FFF7BAF9626800EB800000EB800053001D
:10173000B0FBF3F8FFF7B0F9D4E9002300EB800029
:1017400000EB80005B00B0FBF3F3A7FB03135B0926
:1017500009FB1383DB003233A7FB0313C3F34213EC
:1017600033442B449360BDE8F883FFF7A5F91F4F7E
:10177000636800EB800000EB80005B00B0FBF3F3DC
:10178000A7FB03235B091E01FFF796F9656800EBD1
:10179000800000EB80006D00B0FBF5F5FFF78CF9E1
:1017A000636800EB800000EB80005B00B0FBF3F3AC
:1017B000A7FB03234FF064095B0909FB1353DB000C
:1017C0003233A7FB03231B0903F4F875FFF774F901
:1017D000626800EB8000530000EB8000B0FBF3F880
:1017E000FFF76AF9A8E700BF001001401F85EB5121
:1017F0002DE9F04107460E4690461D463C6801E043
:101800006B1C06D1206836EA0003F9D10020BDE840
:10181000F08135B1FEF71CFFA0EB08008542EDD248
:101820003C68E36823F4D073E3606369202223F00B
:10183000010300216361032087F8392087F83810FD
:1018400087F83A20E3E700BF60B338B590F8393045
:10185000044603F0FF0203B32268242384F83930DE
:10186000D36823F40053D3602046FFF765FE236856
:101870001A6922F490421A615A6922F02A025A61C6
:10188000DA680025202142F40052DA602846E56338
:1018900084F8391084F83A1038BD80F8382000F008
:1018A000B9FAD9E7012070472DE9F0430F4690F8C7
:1018B0003910202983B02DD187B3019272B3984695
:1018C00090F83830012B044624D00023C363012153
:1018D000212380F8381080F83930FEF7B9FE019ADC
:1018E000A2848146E284E58CADB243464A4680211B
:1018F000204655B3E58CA668013DADB2B6F5805FD4
:10190000E5840FD0FFF774FFE8B923683A785A608E
:101910000137E8E7022003B0BDE8F083012003B0FF
:10192000BDE8F08343464A4680212046FFF760FF2A
:1019300048B93B8821682269C3F308034B60002A39
:10194000E6D10237CFE70320E5E74021FFF750FF5C
:101950000028F8D1202384F8380084F83930DAE7F9
:10196000F0B5294B8BB00024802144F201220546BA
:1019700018461962ADF810200894CDF81240CDF841
:1019800016400794ADF82440FFF71CFC01224FF4E9
:1019900000411E48FEF7E2FF0294029B1D2B05D872
:1019A000029B01330293029B1D2BF9D9164F002491
:1019B0004FF6FF7607AA04A901230096224421448A
:1019C0003846FFF73FFC00230393039B1D2B05D8EC
:1019D000039B01330393039B1D2BF9D90134032C83
:1019E000E8D100224FF400410848FEF7B7FF9DF808
:1019F0001F209DF82030120282F47F42DB4352FA0E
:101A000083F32B800BB0F0BDF801002000000240F2
:101A100002680D4B9A4200D0704710B50B4C20461F
:101A2000FFF79EFF20460A4930F8042B00F0B8FA71
:101A3000201DFEF76DFD211D82B264230548BDE81F
:101A40001040FFF731BF00BF001000408C000020A5
:101A5000F42700088C02002030B5002495B0CDE9B1
:101A60000A44CDE90844CDE90344CDE905441D4BC2
:101A700000940C940294196C1B4A41F08051196433
:101A80001B6C03F080530093009B0194136823F4B4
:101A9000404343F48043136013680E9403F44043BF
:101AA00001930122022510234FF4A87101980A9294
:101AB00007A804220B930F9307950D95CDE91255B6
:101AC000CDE91012FFF760F80F224FF4805302A8FF
:101AD0002946CDE90354069402920593FEF742FF8E
:101AE00015B030BD00380240007000402DE980483C
:101AF00000248DB0FEF786FDFFF7AEFFCDE9074469
:101B0000CDE90944564B03940B941A6B5548564D36
:101B100042F004021A631A6B02F004020392039A61
:101B200004941A6B42F080021A631A6B02F080026E
:101B30000492049A05941A6B42F001021A631A6B1C
:101B400002F001020592059A06941A6B42F0020215
:101B50001A631B6B03F002030693224648F220012E
:101B6000069BFEF7FBFE22464FF400713F48FEF74E
:101B7000F5FE3F4B3F4809944FF4005207A9CDE9C9
:101B800007230126FEF7D8FD48F2200307A93548B0
:101B9000CDE907364FF40077CDE90944FEF7CCFDD7
:101BA00007A932480A94CDE908640797FEF7C4FDF7
:101BB000314BDFF8DCC09C604FF4E1310C22184659
:101BC000C3E900C15A61C3E90344C3E90644FFF70E
:101BD0003BFE2A49079440F2E7324FF4FA43284685
:101BE00085E81600EB600894FFF760FC07A928461B
:101BF000CDE90744FFF776FC214B22499C604FF466
:101C0000827218464FF0020B4FF0300A4FF08009F5
:101C10004FF00A08C3E90012DC60C3E90567C3E9B5
:101C200009440192C3F810B0C3E907A9C3F82C8096
:101C3000FFF7C8FA144B019A14495E611846C3E9CC
:101C40000124C3E9034BC3E9067AC3E90894C3E955
:101C50000A481960FFF7B6FA2846FFF701FBFEE7CE
:101C60000038024000000240500200200004024000
:101C700000002110000802408C02002000100040EB
:101C8000A001002000380040F8010020003C004086
:101C90000044004082B00D4B002100915A6C42F488
:101CA00080425A645A6C02F480420092009A019178
:101CB0001A6C42F080521A641B6C03F0805301933B
:101CC000019B072002B0FEF7C9BC00BF00380240EC
:101CD000F0B503683A4A8BB000249342CDE905443D
:101CE000CDE90744099428D0364A934201D00BB07D
:101CF000F0BD354B03941A6C344842F400421A6428
:101D00001A6C02F400420392039A04941A6B42F094
:101D100004021A631B6B03F00403049303220623DB
:101D200005A94FF4E0550224049ECDE90554CDE900
:101D30000823FEF701FD0BB0F0BD234B00941A6C95
:101D4000224842F480421A641A6C02F480420092E3
:101D5000009A01941A6B42F004021A631A6B02F0A3
:101D600004020192019A02941A6B42F002021A6371
:101D70001B6B03F00203029302250326072305A928
:101D8000029ACDE908630527CDE90555FEF7D4FC95
:101D9000042305A90D4805930695CDE90746099743
:101DA000FEF7CAFC4FF4806305A909480695CDE902
:101DB000086707940593FEF7BFFC0BB0F0BD00BFAA
:101DC00000380040003C004000380240000802405B
:101DD0000004024002680E4B9A4200D0704700B5E2
:101DE00083B0002203F50A330192196C41F010010F
:101DF00019641B6C03F01003019311463620019BFC
:101E0000FEF73EFC362003B05DF804EBFEF76EBC37
:101E10000010004070B50168184A88B00023914254
:101E2000CDE90333CDE90533079301D008B070BD88
:101E300002F5FA320193116C114841F4003111643A
:101E4000116C01F40031019101990293136B43F07D
:101E500001031363136B03F0010302930C230322AA
:101E6000039303A9072302250124029ECDE904540C
:101E7000CDE90623FEF760FC08B070BD00440040C9
:101E800000000240704700BFFEE700BFFEE700BF52
:101E9000FEE700BFFEE700BF704700BF704700BF0E
:101EA000704700BFFEF7C8BB0148FFF7EDB900BFA0
:101EB000500200201049114BD1F8882042F47002E2
:101EC00010B4C1F888201A680D4C002042F00102BD
:101ED0001A6098601A6822F0847222F480321A60C4
:101EE0005C601A684FF0006422F480221A60D860A7
:101EF0008C605DF8044B704700ED00E00038024054
:101F000010300024DFF834D0002103E00C4B5B5884
:101F1000435004310B480C4B42189A42F6D30B4AFB
:101F200002E0002342F8043B094B9A42F9D3FFF741
:101F3000C1FF00F011F8FFF7D9FD70470000022043
:101F400040280008000000207000002070000020E1
:101F5000D0020020FEE7000070B50D4E0D4CA41B12
:101F6000A4100025A54209D10B4E0C4C00F02AFC10
:101F7000A41BA4100025A54205D170BD56F825303C
:101F800098470135EEE756F8253098470135F2E7D6
:101F90003828000838280008382800083C2800089D
:101FA0000EB400B59CB01DAB029006906FF00041DE
:101FB000094807910491094953F8042B05910068D9
:101FC000019302A900F066F8029B00221A701CB06F
:101FD0005DF804EB03B070470C0000200802FFFF1F
:101FE0002DE9F0478E689E4282460C4690469946FF
:101FF00037D88A8912F4906F31D0256809696F1A31
:102000006569022305EB450595FBF3F509F101032D
:102010003B449D4238BF1D46530530D5294600F04C
:1020200029FB064650B90C23CAF80030A38943F0B7
:102030004003A3814FF0FF30BDE8F0873A462169A5
:1020400000F0A6FAA38923F4906343F08003A381F0
:10205000266165613E44ED1B2660A5604E464E45F7
:1020600000D94E4632464146206800F09CFAA368EB
:102070009B1BA36023681E4426600020DCE72A46E1
:1020800000F052FB06460028E2D12169504600F0DC
:10209000A3FAC8E72DE9F04F9DB0804603938B89E2
:1020A0001D060C4616460FD50B696BB9402100F092
:1020B000E1FA2060206128B90C23C8F800304FF005
:1020C000FF30C7E0402363610023099320238DF88C
:1020D000293030238DF82A304FF0010B37463D462A
:1020E00015F8013B0BB1252B3ED1B7EB060A0BD0FF
:1020F0005346324621464046FFF772FF013000F05A
:10210000A480099B534409933B78002B00F09D80E9
:1021100000234FF0FF32CDE90523049307938DF898
:1021200053301A932F46052217F8011B4F48FEF72C
:10213000F7F9049BD0B9D90644BF20228DF853206B
:102140001A0744BF2B228DF853202A782A2A15D04B
:10215000079A2F4600200A25394611F8013B303BEB
:10216000092B4DD9B8B10FE02F46B8E73F4A801A86
:102170000BFA00F0184304903D46D3E7039A111D73
:1021800012680391002A01DB079204E0524243F0F7
:102190000203079204933B782E2B0CD17B782A2BD9
:1021A00033D1039B1A1D1B680392002BB8BF4FF05D
:1021B000FF33023705932E4D397803222846FEF768
:1021C000AFF938B14023401B03FA00F0049B0343EE
:1021D00001370493397827488DF8281006227E1C91
:1021E000FEF79EF9002838D0234B13BB039B07331F
:1021F00023F0070308330393099B4B4409936DE7CE
:1022000005FB023201200F46A6E7002301370593A4
:1022100019460A25384610F8012B303A092A03D905
:10222000002BC8D00591C6E705FB01210123074615
:10223000F0E703AB00932246104B04A94046AFF3EE
:102240000080B0F1FF3F8146D6D1A3895B063FF500
:1022500036AF09981DB0BDE8F08F03AB009322465E
:10226000064B04A9404600F081F8EAE7FC27000885
:10227000022800080628000800000000E11F0008EE
:102280002DE9F04791461F468A680B69DDF82080EA
:102290009342B8BF1346C9F8003091F84320064670
:1022A0000C4612B10133C9F800302368990642BFC9
:1022B000D9F800300233C9F80030256815F006055A
:1022C00007D104F1190AE368D9F800209B1AAB4240
:1022D00028DC94F843302268003318BF01239206AB
:1022E0002DD404F1430239463046C047013020D096
:1022F0002368E568D9F8002003F00603042B08BF23
:10230000AD1AA36822690CBF25EAE5750025934242
:10231000C4BF9B1AED184FF000091A344D451AD16D
:10232000002008E00123524639463046C0470130BC
:1023300003D14FF0FF30BDE8F0870135C3E7E11866
:102340005A1C302081F84300224494F8451082F84A
:1023500043100233C5E70123224639463046C047C1
:102360000130E6D009F10109D8E700002DE9F0437A
:1023700001F1430C0C46097E85B06E2917460646CE
:1023800098460C9A00F0B38022D8632936D00AD838
:10239000002900F0B980582900F0838004F142053B
:1023A00084F8421032E0642901D06929F6D120680E
:1023B0001368050603F104012AD51B681160002B80
:1023C00003DA2D225B4284F843206F480A2239E069
:1023D000732900F09D8008D86F2920D07029DDD1A5
:1023E000236843F02003236003E0752917D0782980
:1023F000D4D1782384F84530644855E01368191D1A
:102400001B68116004F1420584F8423001238CE01E
:102410001B68116010F0400F18BF1BB2CFE71368A4
:102420002568181D1060280601D51B6802E06806A3
:10243000FBD51B8854486F2914BF0A2208220021AB
:1024400084F843106568A560002DC0F2958021686E
:1024500021F004012160002B3DD1002D40F08E8041
:102460006546082A0BD12368DB0708D52369626813
:102470009A42DEBF302305F8013C05F1FF35ACEB95
:1024800005032361CDF800803B4603AA2146304670
:10249000FFF7F6FE01304DD14FF0FF3005B0BDE83B
:1024A000F083394884F84510136821681D1D1B68A6
:1024B00015600A060BD5CA0744BF41F02001216010
:1024C0001BB9226822F0200222601022B7E74D06D5
:1024D00048BF9BB2EFE76546B3FBF2F102FB113355
:1024E000C35C05F8013D0B460029F5D1B9E7136837
:1024F00025686169181D106028061B6801D51960E0
:1025000002E06A06FBD51980002323616546B9E71E
:102510001368191D11601D68626800212846FDF7C7
:10252000FFFF08B1401B606063682361002384F8EB
:102530004330A7E723692A4639463046C047013071
:10254000AAD023689B0713D4E068039B9842B8BFC6
:102550001846A3E701234A4639463046C0470130B2
:102560009AD00135E368039A9B1AAB42F2DCEBE7A1
:10257000002504F11909F5E7002BACD1037884F8A4
:10258000423004F142056CE70D2800081E280008BF
:1025900010B5431E0A44914200D110BD11F8014B01
:1025A00003F8014FF7E7884210B501EB020307D8A3
:1025B000421E99420AD011F8014B02F8014FF8E788
:1025C0008342F5D98118D21AD34200D110BD13F835
:1025D000014D01F8014DF7E738B50546002945D012
:1025E00051F8043C0C1F002BB8BFE41800F0D2F8DF
:1025F0001F4A1368104633B9636014602846BDE86B
:10260000384000F0C8B8A3420CD921686218934240
:1026100004BF1A685B68636004BF521822600460DC
:10262000ECE713465A680AB1A242FAD91968581859
:10263000A0420BD120680144581882421960DDD1B4
:10264000106852685A6001441960D7E702D90C2318
:102650002B60D3E7206821188A4204BF11685268B2
:10266000626004BF091821605C60C7E738BD00BF25
:102670009001002070B5CD1C25F0030508350C2D08
:1026800038BF0C25002D064601DBA94203D90C23D7
:102690003360002070BD00F07DF8214A14682146A7
:1026A00091B9204C23681BB9304600F063F82060D4
:1026B0002946304600F05EF8431C24D10C233360D9
:1026C000304600F068F8E4E70B685B1B18D40B2B6E
:1026D0000FD90B60CD50CC18304600F05CF804F1F7
:1026E0000B00231D20F00700C31AD3D05A42E2503A
:1026F000D0E78C424B6816BF636013600C46EBE773
:102700000C464968CCE7C41C24F00304A04205D061
:10271000211A304600F02EF80130CFD02560DBE7DB
:102720009001002094010020F8B5074614460E469B
:1027300021B91146BDE8F840FFF79CBF22B9FFF769
:102740004BFF25462846F8BD00F026F8A0420FD2E0
:1027500021463846FFF78EFF05460028F2D0314665
:102760002246FFF715FF31463846FFF735FFE9E708
:102770003546E7E738B5064C002305460846236092
:1027800000F012F8431C02D1236803B12B6038BD5E
:10279000CC0200207047704751F8043C181F002BF2
:1027A000BCBF0B58C0187047044A05491368002B7A
:1027B00008BF0B4618441060184670479801002067
:1027C000D0020020F8B500BFF8BC08BC9E46704798
:0C27D000F8B500BFF8BC08BC9E4670477E
:1027DC0000000000000000000102030406070809C5
:1027EC00000000000102030425640D0A0000000033
:1027FC00232D302B2000686C4C00656667454647DE
:10280C000030313233343536373839414243444560
:10281C0046003031323334353637383961626364CF
:04282C0065660000DD
:0828300010DAFF7F0100000037
:04283800F50100089E
:04283C00D1010008BE
:1028400001000000100000000024F400100000202F
:102850000000000000000000000000000000000078
:102860000000000000000000000000000000000068
:102870000000000000000000000000000000000058
:102880000000000000000000000000000000000048
:102890000000000000000000000000000000000038
:1028A0000000000000000000000000000000000028
:0400000508001F05CB
:00000001FF
